{
  "_format": "hh-sol-artifact-1",
  "contractName": "NFTMarketplace",
  "sourceName": "contracts/NFTMarketplace.sol",
  "abi": [
    {
      "inputs": [],
      "stateMutability": "nonpayable",
      "type": "constructor"
    },
    {
      "anonymous": false,
      "inputs": [
        {
          "indexed": true,
          "internalType": "address",
          "name": "owner",
          "type": "address"
        },
        {
          "indexed": true,
          "internalType": "address",
          "name": "approved",
          "type": "address"
        },
        {
          "indexed": true,
          "internalType": "uint256",
          "name": "tokenId",
          "type": "uint256"
        }
      ],
      "name": "Approval",
      "type": "event"
    },
    {
      "anonymous": false,
      "inputs": [
        {
          "indexed": true,
          "internalType": "address",
          "name": "owner",
          "type": "address"
        },
        {
          "indexed": true,
          "internalType": "address",
          "name": "operator",
          "type": "address"
        },
        {
          "indexed": false,
          "internalType": "bool",
          "name": "approved",
          "type": "bool"
        }
      ],
      "name": "ApprovalForAll",
      "type": "event"
    },
    {
      "anonymous": false,
      "inputs": [
        {
          "indexed": false,
          "internalType": "uint256",
          "name": "_fromTokenId",
          "type": "uint256"
        },
        {
          "indexed": false,
          "internalType": "uint256",
          "name": "_toTokenId",
          "type": "uint256"
        }
      ],
      "name": "BatchMetadataUpdate",
      "type": "event"
    },
    {
      "anonymous": false,
      "inputs": [
        {
          "indexed": true,
          "internalType": "uint256",
          "name": "tokenId",
          "type": "uint256"
        },
        {
          "indexed": false,
          "internalType": "address",
          "name": "seller",
          "type": "address"
        },
        {
          "indexed": false,
          "internalType": "address",
          "name": "owner",
          "type": "address"
        },
        {
          "indexed": false,
          "internalType": "uint256",
          "name": "price",
          "type": "uint256"
        },
        {
          "indexed": false,
          "internalType": "bool",
          "name": "sold",
          "type": "bool"
        }
      ],
      "name": "MarketItemCreated",
      "type": "event"
    },
    {
      "anonymous": false,
      "inputs": [
        {
          "indexed": false,
          "internalType": "uint256",
          "name": "_tokenId",
          "type": "uint256"
        }
      ],
      "name": "MetadataUpdate",
      "type": "event"
    },
    {
      "anonymous": false,
      "inputs": [
        {
          "indexed": true,
          "internalType": "address",
          "name": "from",
          "type": "address"
        },
        {
          "indexed": true,
          "internalType": "address",
          "name": "to",
          "type": "address"
        },
        {
          "indexed": true,
          "internalType": "uint256",
          "name": "tokenId",
          "type": "uint256"
        }
      ],
      "name": "Transfer",
      "type": "event"
    },
    {
      "inputs": [
        {
          "internalType": "address",
          "name": "to",
          "type": "address"
        },
        {
          "internalType": "uint256",
          "name": "tokenId",
          "type": "uint256"
        }
      ],
      "name": "approve",
      "outputs": [],
      "stateMutability": "nonpayable",
      "type": "function"
    },
    {
      "inputs": [
        {
          "internalType": "address",
          "name": "owner",
          "type": "address"
        }
      ],
      "name": "balanceOf",
      "outputs": [
        {
          "internalType": "uint256",
          "name": "",
          "type": "uint256"
        }
      ],
      "stateMutability": "view",
      "type": "function"
    },
    {
      "inputs": [
        {
          "internalType": "uint256",
          "name": "tokenId",
          "type": "uint256"
        }
      ],
      "name": "createMarketSale",
      "outputs": [],
      "stateMutability": "payable",
      "type": "function"
    },
    {
      "inputs": [
        {
          "internalType": "string",
          "name": "tokenURI",
          "type": "string"
        },
        {
          "internalType": "uint256",
          "name": "price",
          "type": "uint256"
        }
      ],
      "name": "createToken",
      "outputs": [
        {
          "internalType": "uint256",
          "name": "",
          "type": "uint256"
        }
      ],
      "stateMutability": "payable",
      "type": "function"
    },
    {
      "inputs": [],
      "name": "fetchItemsListed",
      "outputs": [
        {
          "components": [
            {
              "internalType": "uint256",
              "name": "tokenId",
              "type": "uint256"
            },
            {
              "internalType": "address payable",
              "name": "seller",
              "type": "address"
            },
            {
              "internalType": "address payable",
              "name": "owner",
              "type": "address"
            },
            {
              "internalType": "uint256",
              "name": "price",
              "type": "uint256"
            },
            {
              "internalType": "bool",
              "name": "sold",
              "type": "bool"
            }
          ],
          "internalType": "struct NFTMarketplace.MarketItem[]",
          "name": "",
          "type": "tuple[]"
        }
      ],
      "stateMutability": "view",
      "type": "function"
    },
    {
      "inputs": [],
      "name": "fetchMarketItems",
      "outputs": [
        {
          "components": [
            {
              "internalType": "uint256",
              "name": "tokenId",
              "type": "uint256"
            },
            {
              "internalType": "address payable",
              "name": "seller",
              "type": "address"
            },
            {
              "internalType": "address payable",
              "name": "owner",
              "type": "address"
            },
            {
              "internalType": "uint256",
              "name": "price",
              "type": "uint256"
            },
            {
              "internalType": "bool",
              "name": "sold",
              "type": "bool"
            }
          ],
          "internalType": "struct NFTMarketplace.MarketItem[]",
          "name": "",
          "type": "tuple[]"
        }
      ],
      "stateMutability": "view",
      "type": "function"
    },
    {
      "inputs": [],
      "name": "fetchMyNFTs",
      "outputs": [
        {
          "components": [
            {
              "internalType": "uint256",
              "name": "tokenId",
              "type": "uint256"
            },
            {
              "internalType": "address payable",
              "name": "seller",
              "type": "address"
            },
            {
              "internalType": "address payable",
              "name": "owner",
              "type": "address"
            },
            {
              "internalType": "uint256",
              "name": "price",
              "type": "uint256"
            },
            {
              "internalType": "bool",
              "name": "sold",
              "type": "bool"
            }
          ],
          "internalType": "struct NFTMarketplace.MarketItem[]",
          "name": "",
          "type": "tuple[]"
        }
      ],
      "stateMutability": "view",
      "type": "function"
    },
    {
      "inputs": [
        {
          "internalType": "uint256",
          "name": "tokenId",
          "type": "uint256"
        }
      ],
      "name": "getApproved",
      "outputs": [
        {
          "internalType": "address",
          "name": "",
          "type": "address"
        }
      ],
      "stateMutability": "view",
      "type": "function"
    },
    {
      "inputs": [],
      "name": "getListingPrice",
      "outputs": [
        {
          "internalType": "uint256",
          "name": "",
          "type": "uint256"
        }
      ],
      "stateMutability": "view",
      "type": "function"
    },
    {
      "inputs": [
        {
          "internalType": "uint256",
          "name": "tokenId",
          "type": "uint256"
        }
      ],
      "name": "getSellerAndBuyerOfNFT",
      "outputs": [
        {
          "internalType": "address",
          "name": "",
          "type": "address"
        },
        {
          "internalType": "address",
          "name": "",
          "type": "address"
        }
      ],
      "stateMutability": "view",
      "type": "function"
    },
    {
      "inputs": [
        {
          "internalType": "address",
          "name": "owner",
          "type": "address"
        },
        {
          "internalType": "address",
          "name": "operator",
          "type": "address"
        }
      ],
      "name": "isApprovedForAll",
      "outputs": [
        {
          "internalType": "bool",
          "name": "",
          "type": "bool"
        }
      ],
      "stateMutability": "view",
      "type": "function"
    },
    {
      "inputs": [],
      "name": "name",
      "outputs": [
        {
          "internalType": "string",
          "name": "",
          "type": "string"
        }
      ],
      "stateMutability": "view",
      "type": "function"
    },
    {
      "inputs": [
        {
          "internalType": "uint256",
          "name": "tokenId",
          "type": "uint256"
        }
      ],
      "name": "ownerOf",
      "outputs": [
        {
          "internalType": "address",
          "name": "",
          "type": "address"
        }
      ],
      "stateMutability": "view",
      "type": "function"
    },
    {
      "inputs": [
        {
          "internalType": "uint256",
          "name": "tokenId",
          "type": "uint256"
        },
        {
          "internalType": "uint256",
          "name": "price",
          "type": "uint256"
        }
      ],
      "name": "resellToken",
      "outputs": [],
      "stateMutability": "payable",
      "type": "function"
    },
    {
      "inputs": [
        {
          "internalType": "address",
          "name": "from",
          "type": "address"
        },
        {
          "internalType": "address",
          "name": "to",
          "type": "address"
        },
        {
          "internalType": "uint256",
          "name": "tokenId",
          "type": "uint256"
        }
      ],
      "name": "safeTransferFrom",
      "outputs": [],
      "stateMutability": "nonpayable",
      "type": "function"
    },
    {
      "inputs": [
        {
          "internalType": "address",
          "name": "from",
          "type": "address"
        },
        {
          "internalType": "address",
          "name": "to",
          "type": "address"
        },
        {
          "internalType": "uint256",
          "name": "tokenId",
          "type": "uint256"
        },
        {
          "internalType": "bytes",
          "name": "data",
          "type": "bytes"
        }
      ],
      "name": "safeTransferFrom",
      "outputs": [],
      "stateMutability": "nonpayable",
      "type": "function"
    },
    {
      "inputs": [
        {
          "internalType": "address",
          "name": "operator",
          "type": "address"
        },
        {
          "internalType": "bool",
          "name": "approved",
          "type": "bool"
        }
      ],
      "name": "setApprovalForAll",
      "outputs": [],
      "stateMutability": "nonpayable",
      "type": "function"
    },
    {
      "inputs": [
        {
          "internalType": "bytes4",
          "name": "interfaceId",
          "type": "bytes4"
        }
      ],
      "name": "supportsInterface",
      "outputs": [
        {
          "internalType": "bool",
          "name": "",
          "type": "bool"
        }
      ],
      "stateMutability": "view",
      "type": "function"
    },
    {
      "inputs": [],
      "name": "symbol",
      "outputs": [
        {
          "internalType": "string",
          "name": "",
          "type": "string"
        }
      ],
      "stateMutability": "view",
      "type": "function"
    },
    {
      "inputs": [
        {
          "internalType": "uint256",
          "name": "tokenId",
          "type": "uint256"
        }
      ],
      "name": "tokenURI",
      "outputs": [
        {
          "internalType": "string",
          "name": "",
          "type": "string"
        }
      ],
      "stateMutability": "view",
      "type": "function"
    },
    {
      "inputs": [
        {
          "internalType": "address",
          "name": "from",
          "type": "address"
        },
        {
          "internalType": "address",
          "name": "to",
          "type": "address"
        },
        {
          "internalType": "uint256",
          "name": "tokenId",
          "type": "uint256"
        }
      ],
      "name": "transferFrom",
      "outputs": [],
      "stateMutability": "nonpayable",
      "type": "function"
    },
    {
      "inputs": [
        {
          "internalType": "uint256",
          "name": "_listingPrice",
          "type": "uint256"
        }
      ],
      "name": "updateListingPrice",
      "outputs": [],
      "stateMutability": "payable",
      "type": "function"
    }
  ],
  "bytecode": "0x60806040526658d15e176280006009553480156200001c57600080fd5b506040518060400160405280601081526020017f4d657461766572736520546f6b656e73000000000000000000000000000000008152506040518060400160405280600481526020017f4d4554540000000000000000000000000000000000000000000000000000000081525081600090816200009a919062000370565b508060019081620000ac919062000370565b50505033600a60006101000a81548173ffffffffffffffffffffffffffffffffffffffff021916908373ffffffffffffffffffffffffffffffffffffffff16021790555062000457565b600081519050919050565b7f4e487b7100000000000000000000000000000000000000000000000000000000600052604160045260246000fd5b7f4e487b7100000000000000000000000000000000000000000000000000000000600052602260045260246000fd5b600060028204905060018216806200017857607f821691505b6020821081036200018e576200018d62000130565b5b50919050565b60008190508160005260206000209050919050565b60006020601f8301049050919050565b600082821b905092915050565b600060088302620001f87fffffffffffffffffffffffffffffffffffffffffffffffffffffffffffffffff82620001b9565b620002048683620001b9565b95508019841693508086168417925050509392505050565b6000819050919050565b6000819050919050565b6000620002516200024b62000245846200021c565b62000226565b6200021c565b9050919050565b6000819050919050565b6200026d8362000230565b620002856200027c8262000258565b848454620001c6565b825550505050565b600090565b6200029c6200028d565b620002a981848462000262565b505050565b5b81811015620002d157620002c560008262000292565b600181019050620002af565b5050565b601f8211156200032057620002ea8162000194565b620002f584620001a9565b8101602085101562000305578190505b6200031d6200031485620001a9565b830182620002ae565b50505b505050565b600082821c905092915050565b6000620003456000198460080262000325565b1980831691505092915050565b600062000360838362000332565b9150826002028217905092915050565b6200037b82620000f6565b67ffffffffffffffff81111562000397576200039662000101565b5b620003a382546200015f565b620003b0828285620002d5565b600060209050601f831160018114620003e85760008415620003d3578287015190505b620003df858262000352565b8655506200044f565b601f198416620003f88662000194565b60005b828110156200042257848901518255600182019150602085019450602081019050620003fb565b868310156200044257848901516200043e601f89168262000332565b8355505b6001600288020188555050505b505050505050565b61457380620004676000396000f3fe6080604052600436106101355760003560e01c806370a08231116100ab578063ae677aa31161006f578063ae677aa314610442578063b88d4fde1461045e578063be9af53614610487578063c87b56dd146104a3578063e219fc75146104e0578063e985e9c5146104fc57610135565b806370a082311461034357806372b3b6201461038057806395d89b41146103b0578063a22cb465146103db578063a89c971c1461040457610135565b806312e85585116100fd57806312e8558514610233578063202e37401461025e57806323b872dd1461028957806342842e0e146102b257806345f8fa80146102db5780636352211e1461030657610135565b806301ffc9a71461013a57806306fdde0314610177578063081812fc146101a2578063095ea7b3146101df5780630f08efe014610208575b600080fd5b34801561014657600080fd5b50610161600480360381019061015c9190612d7c565b610539565b60405161016e9190612dc4565b60405180910390f35b34801561018357600080fd5b5061018c61059a565b6040516101999190612e6f565b60405180910390f35b3480156101ae57600080fd5b506101c960048036038101906101c49190612ec7565b61062c565b6040516101d69190612f35565b60405180910390f35b3480156101eb57600080fd5b5061020660048036038101906102019190612f7c565b610672565b005b34801561021457600080fd5b5061021d610789565b60405161022a9190613112565b60405180910390f35b34801561023f57600080fd5b506102486109f1565b6040516102559190613143565b60405180910390f35b34801561026a57600080fd5b506102736109fb565b6040516102809190613112565b60405180910390f35b34801561029557600080fd5b506102b060048036038101906102ab919061315e565b610ce7565b005b3480156102be57600080fd5b506102d960048036038101906102d4919061315e565b610d47565b005b3480156102e757600080fd5b506102f0610d67565b6040516102fd9190613112565b60405180910390f35b34801561031257600080fd5b5061032d60048036038101906103289190612ec7565b611053565b60405161033a9190612f35565b60405180910390f35b34801561034f57600080fd5b5061036a600480360381019061036591906131b1565b6110d9565b6040516103779190613143565b60405180910390f35b61039a60048036038101906103959190613313565b611190565b6040516103a79190613143565b60405180910390f35b3480156103bc57600080fd5b506103c56111d2565b6040516103d29190612e6f565b60405180910390f35b3480156103e757600080fd5b5061040260048036038101906103fd919061339b565b611264565b005b34801561041057600080fd5b5061042b60048036038101906104269190612ec7565b61127a565b6040516104399291906133db565b60405180910390f35b61045c60048036038101906104579190612ec7565b61138e565b005b34801561046a57600080fd5b50610485600480360381019061048091906134a5565b6114b8565b005b6104a1600480360381019061049c9190612ec7565b61151a565b005b3480156104af57600080fd5b506104ca60048036038101906104c59190612ec7565b611752565b6040516104d79190612e6f565b60405180910390f35b6104fa60048036038101906104f59190613528565b611864565b005b34801561050857600080fd5b50610523600480360381019061051e9190613568565b611a59565b6040516105309190612dc4565b60405180910390f35b6000634906490660e01b7bffffffffffffffffffffffffffffffffffffffffffffffffffffffff1916827bffffffffffffffffffffffffffffffffffffffffffffffffffffffff19161480610593575061059282611aed565b5b9050919050565b6060600080546105a9906135d7565b80601f01602080910402602001604051908101604052809291908181526020018280546105d5906135d7565b80156106225780601f106105f757610100808354040283529160200191610622565b820191906000526020600020905b81548152906001019060200180831161060557829003601f168201915b5050505050905090565b600061063782611bcf565b6004600083815260200190815260200160002060009054906101000a900473ffffffffffffffffffffffffffffffffffffffff169050919050565b600061067d82611053565b90508073ffffffffffffffffffffffffffffffffffffffff168373ffffffffffffffffffffffffffffffffffffffff16036106ed576040517f08c379a00000000000000000000000000000000000000000000000000000000081526004016106e49061367a565b60405180910390fd5b8073ffffffffffffffffffffffffffffffffffffffff1661070c611c1a565b73ffffffffffffffffffffffffffffffffffffffff16148061073b575061073a81610735611c1a565b611a59565b5b61077a576040517f08c379a00000000000000000000000000000000000000000000000000000000081526004016107719061370c565b60405180910390fd5b6107848383611c22565b505050565b606060006107976007611cdb565b905060006107a56008611cdb565b6107af6007611cdb565b6107b9919061375b565b90506000808267ffffffffffffffff8111156107d8576107d76131e8565b5b60405190808252806020026020018201604052801561081157816020015b6107fe612cb3565b8152602001906001900390816107f65790505b50905060005b848110156109e6573073ffffffffffffffffffffffffffffffffffffffff16600b6000600184610847919061378f565b815260200190815260200160002060020160009054906101000a900473ffffffffffffffffffffffffffffffffffffffff1673ffffffffffffffffffffffffffffffffffffffff16036109d35760006001826108a3919061378f565b90506000600b60008381526020019081526020016000209050806040518060a0016040529081600082015481526020016001820160009054906101000a900473ffffffffffffffffffffffffffffffffffffffff1673ffffffffffffffffffffffffffffffffffffffff1673ffffffffffffffffffffffffffffffffffffffff1681526020016002820160009054906101000a900473ffffffffffffffffffffffffffffffffffffffff1673ffffffffffffffffffffffffffffffffffffffff1673ffffffffffffffffffffffffffffffffffffffff168152602001600382015481526020016004820160009054906101000a900460ff1615151515815250508486815181106109b6576109b56137c3565b5b60200260200101819052506001856109ce919061378f565b945050505b80806109de906137f2565b915050610817565b508094505050505090565b6000600954905090565b60606000610a096007611cdb565b905060008060005b83811015610ab1573373ffffffffffffffffffffffffffffffffffffffff16600b6000600184610a41919061378f565b815260200190815260200160002060020160009054906101000a900473ffffffffffffffffffffffffffffffffffffffff1673ffffffffffffffffffffffffffffffffffffffff1603610a9e57600183610a9b919061378f565b92505b8080610aa9906137f2565b915050610a11565b5060008267ffffffffffffffff811115610ace57610acd6131e8565b5b604051908082528060200260200182016040528015610b0757816020015b610af4612cb3565b815260200190600190039081610aec5790505b50905060005b84811015610cdc573373ffffffffffffffffffffffffffffffffffffffff16600b6000600184610b3d919061378f565b815260200190815260200160002060020160009054906101000a900473ffffffffffffffffffffffffffffffffffffffff1673ffffffffffffffffffffffffffffffffffffffff1603610cc9576000600182610b99919061378f565b90506000600b60008381526020019081526020016000209050806040518060a0016040529081600082015481526020016001820160009054906101000a900473ffffffffffffffffffffffffffffffffffffffff1673ffffffffffffffffffffffffffffffffffffffff1673ffffffffffffffffffffffffffffffffffffffff1681526020016002820160009054906101000a900473ffffffffffffffffffffffffffffffffffffffff1673ffffffffffffffffffffffffffffffffffffffff1673ffffffffffffffffffffffffffffffffffffffff168152602001600382015481526020016004820160009054906101000a900460ff161515151581525050848681518110610cac57610cab6137c3565b5b6020026020010181905250600185610cc4919061378f565b945050505b8080610cd4906137f2565b915050610b0d565b508094505050505090565b610cf8610cf2611c1a565b82611ce9565b610d37576040517f08c379a0000000000000000000000000000000000000000000000000000000008152600401610d2e906138ac565b60405180910390fd5b610d42838383611d7e565b505050565b610d62838383604051806020016040528060008152506114b8565b505050565b60606000610d756007611cdb565b905060008060005b83811015610e1d573373ffffffffffffffffffffffffffffffffffffffff16600b6000600184610dad919061378f565b815260200190815260200160002060010160009054906101000a900473ffffffffffffffffffffffffffffffffffffffff1673ffffffffffffffffffffffffffffffffffffffff1603610e0a57600183610e07919061378f565b92505b8080610e15906137f2565b915050610d7d565b5060008267ffffffffffffffff811115610e3a57610e396131e8565b5b604051908082528060200260200182016040528015610e7357816020015b610e60612cb3565b815260200190600190039081610e585790505b50905060005b84811015611048573373ffffffffffffffffffffffffffffffffffffffff16600b6000600184610ea9919061378f565b815260200190815260200160002060010160009054906101000a900473ffffffffffffffffffffffffffffffffffffffff1673ffffffffffffffffffffffffffffffffffffffff1603611035576000600182610f05919061378f565b90506000600b60008381526020019081526020016000209050806040518060a0016040529081600082015481526020016001820160009054906101000a900473ffffffffffffffffffffffffffffffffffffffff1673ffffffffffffffffffffffffffffffffffffffff1673ffffffffffffffffffffffffffffffffffffffff1681526020016002820160009054906101000a900473ffffffffffffffffffffffffffffffffffffffff1673ffffffffffffffffffffffffffffffffffffffff1673ffffffffffffffffffffffffffffffffffffffff168152602001600382015481526020016004820160009054906101000a900460ff161515151581525050848681518110611018576110176137c3565b5b6020026020010181905250600185611030919061378f565b945050505b8080611040906137f2565b915050610e79565b508094505050505090565b60008061105f83612077565b9050600073ffffffffffffffffffffffffffffffffffffffff168173ffffffffffffffffffffffffffffffffffffffff16036110d0576040517f08c379a00000000000000000000000000000000000000000000000000000000081526004016110c790613918565b60405180910390fd5b80915050919050565b60008073ffffffffffffffffffffffffffffffffffffffff168273ffffffffffffffffffffffffffffffffffffffff1603611149576040517f08c379a0000000000000000000000000000000000000000000000000000000008152600401611140906139aa565b60405180910390fd5b600360008373ffffffffffffffffffffffffffffffffffffffff1673ffffffffffffffffffffffffffffffffffffffff168152602001908152602001600020549050919050565b600061119c60076120b4565b60006111a86007611cdb565b90506111b433826120ca565b6111be81856122e7565b6111c8818461238b565b8091505092915050565b6060600180546111e1906135d7565b80601f016020809104026020016040519081016040528092919081815260200182805461120d906135d7565b801561125a5780601f1061122f5761010080835404028352916020019161125a565b820191906000526020600020905b81548152906001019060200180831161123d57829003601f168201915b5050505050905090565b61127661126f611c1a565b838361258e565b5050565b6000806000600b60008581526020019081526020016000206040518060a0016040529081600082015481526020016001820160009054906101000a900473ffffffffffffffffffffffffffffffffffffffff1673ffffffffffffffffffffffffffffffffffffffff1673ffffffffffffffffffffffffffffffffffffffff1681526020016002820160009054906101000a900473ffffffffffffffffffffffffffffffffffffffff1673ffffffffffffffffffffffffffffffffffffffff1673ffffffffffffffffffffffffffffffffffffffff168152602001600382015481526020016004820160009054906101000a900460ff1615151515815250509050806020015181604001519250925050915091565b600a60009054906101000a900473ffffffffffffffffffffffffffffffffffffffff1673ffffffffffffffffffffffffffffffffffffffff163373ffffffffffffffffffffffffffffffffffffffff161461141e576040517f08c379a000000000000000000000000000000000000000000000000000000000815260040161141590613a3c565b60405180910390fd5b3373ffffffffffffffffffffffffffffffffffffffff16600a60009054906101000a900473ffffffffffffffffffffffffffffffffffffffff1673ffffffffffffffffffffffffffffffffffffffff16146114ae576040517f08c379a00000000000000000000000000000000000000000000000000000000081526004016114a590613ace565b60405180910390fd5b8060098190555050565b6114c96114c3611c1a565b83611ce9565b611508576040517f08c379a00000000000000000000000000000000000000000000000000000000081526004016114ff906138ac565b60405180910390fd5b611514848484846126fa565b50505050565b6000600b6000838152602001908152602001600020600301549050803414611577576040517f08c379a000000000000000000000000000000000000000000000000000000000815260040161156e90613b60565b60405180910390fd5b33600b600084815260200190815260200160002060020160006101000a81548173ffffffffffffffffffffffffffffffffffffffff021916908373ffffffffffffffffffffffffffffffffffffffff1602179055506001600b600084815260200190815260200160002060040160006101000a81548160ff0219169083151502179055506000600b600084815260200190815260200160002060010160006101000a81548173ffffffffffffffffffffffffffffffffffffffff021916908373ffffffffffffffffffffffffffffffffffffffff16021790555061165b60086120b4565b611666303384611d7e565b600a60009054906101000a900473ffffffffffffffffffffffffffffffffffffffff1673ffffffffffffffffffffffffffffffffffffffff166108fc6009549081150290604051600060405180830381858888f193505050501580156116d0573d6000803e3d6000fd5b50600b600083815260200190815260200160002060010160009054906101000a900473ffffffffffffffffffffffffffffffffffffffff1673ffffffffffffffffffffffffffffffffffffffff166108fc349081150290604051600060405180830381858888f1935050505015801561174d573d6000803e3d6000fd5b505050565b606061175d82611bcf565b600060066000848152602001908152602001600020805461177d906135d7565b80601f01602080910402602001604051908101604052809291908181526020018280546117a9906135d7565b80156117f65780601f106117cb576101008083540402835291602001916117f6565b820191906000526020600020905b8154815290600101906020018083116117d957829003601f168201915b505050505090506000611807612756565b9050600081510361181c57819250505061185f565b600082511115611851578082604051602001611839929190613bbc565b6040516020818303038152906040529250505061185f565b61185a8461276d565b925050505b919050565b3373ffffffffffffffffffffffffffffffffffffffff16600b600084815260200190815260200160002060020160009054906101000a900473ffffffffffffffffffffffffffffffffffffffff1673ffffffffffffffffffffffffffffffffffffffff1614611908576040517f08c379a00000000000000000000000000000000000000000000000000000000081526004016118ff90613c52565b60405180910390fd5b600954341461194c576040517f08c379a000000000000000000000000000000000000000000000000000000000815260040161194390613ce4565b60405180910390fd5b6000600b600084815260200190815260200160002060040160006101000a81548160ff02191690831515021790555080600b60008481526020019081526020016000206003018190555033600b600084815260200190815260200160002060010160006101000a81548173ffffffffffffffffffffffffffffffffffffffff021916908373ffffffffffffffffffffffffffffffffffffffff16021790555030600b600084815260200190815260200160002060020160006101000a81548173ffffffffffffffffffffffffffffffffffffffff021916908373ffffffffffffffffffffffffffffffffffffffff160217905550611a4a60086127d5565b611a55333084611d7e565b5050565b6000600560008473ffffffffffffffffffffffffffffffffffffffff1673ffffffffffffffffffffffffffffffffffffffff16815260200190815260200160002060008373ffffffffffffffffffffffffffffffffffffffff1673ffffffffffffffffffffffffffffffffffffffff16815260200190815260200160002060009054906101000a900460ff16905092915050565b60007f80ac58cd000000000000000000000000000000000000000000000000000000007bffffffffffffffffffffffffffffffffffffffffffffffffffffffff1916827bffffffffffffffffffffffffffffffffffffffffffffffffffffffff19161480611bb857507f5b5e139f000000000000000000000000000000000000000000000000000000007bffffffffffffffffffffffffffffffffffffffffffffffffffffffff1916827bffffffffffffffffffffffffffffffffffffffffffffffffffffffff1916145b80611bc85750611bc782612831565b5b9050919050565b611bd88161289b565b611c17576040517f08c379a0000000000000000000000000000000000000000000000000000000008152600401611c0e90613918565b60405180910390fd5b50565b600033905090565b816004600083815260200190815260200160002060006101000a81548173ffffffffffffffffffffffffffffffffffffffff021916908373ffffffffffffffffffffffffffffffffffffffff160217905550808273ffffffffffffffffffffffffffffffffffffffff16611c9583611053565b73ffffffffffffffffffffffffffffffffffffffff167f8c5be1e5ebec7d5bd14f71427d1e84f3dd0314c0f7b2291e5b200ac8c7c3b92560405160405180910390a45050565b600081600001549050919050565b600080611cf583611053565b90508073ffffffffffffffffffffffffffffffffffffffff168473ffffffffffffffffffffffffffffffffffffffff161480611d375750611d368185611a59565b5b80611d7557508373ffffffffffffffffffffffffffffffffffffffff16611d5d8461062c565b73ffffffffffffffffffffffffffffffffffffffff16145b91505092915050565b8273ffffffffffffffffffffffffffffffffffffffff16611d9e82611053565b73ffffffffffffffffffffffffffffffffffffffff1614611df4576040517f08c379a0000000000000000000000000000000000000000000000000000000008152600401611deb90613d76565b60405180910390fd5b600073ffffffffffffffffffffffffffffffffffffffff168273ffffffffffffffffffffffffffffffffffffffff1603611e63576040517f08c379a0000000000000000000000000000000000000000000000000000000008152600401611e5a90613e08565b60405180910390fd5b611e7083838360016128dc565b8273ffffffffffffffffffffffffffffffffffffffff16611e9082611053565b73ffffffffffffffffffffffffffffffffffffffff1614611ee6576040517f08c379a0000000000000000000000000000000000000000000000000000000008152600401611edd90613d76565b60405180910390fd5b6004600082815260200190815260200160002060006101000a81549073ffffffffffffffffffffffffffffffffffffffff02191690556001600360008573ffffffffffffffffffffffffffffffffffffffff1673ffffffffffffffffffffffffffffffffffffffff168152602001908152602001600020600082825403925050819055506001600360008473ffffffffffffffffffffffffffffffffffffffff1673ffffffffffffffffffffffffffffffffffffffff16815260200190815260200160002060008282540192505081905550816002600083815260200190815260200160002060006101000a81548173ffffffffffffffffffffffffffffffffffffffff021916908373ffffffffffffffffffffffffffffffffffffffff160217905550808273ffffffffffffffffffffffffffffffffffffffff168473ffffffffffffffffffffffffffffffffffffffff167fddf252ad1be2c89b69c2b068fc378daa952ba7f163c4a11628f55a4df523b3ef60405160405180910390a461207283838360016128e2565b505050565b60006002600083815260200190815260200160002060009054906101000a900473ffffffffffffffffffffffffffffffffffffffff169050919050565b6001816000016000828254019250508190555050565b600073ffffffffffffffffffffffffffffffffffffffff168273ffffffffffffffffffffffffffffffffffffffff1603612139576040517f08c379a000000000000000000000000000000000000000000000000000000000815260040161213090613e74565b60405180910390fd5b6121428161289b565b15612182576040517f08c379a000000000000000000000000000000000000000000000000000000000815260040161217990613ee0565b60405180910390fd5b6121906000838360016128dc565b6121998161289b565b156121d9576040517f08c379a00000000000000000000000000000000000000000000000000000000081526004016121d090613ee0565b60405180910390fd5b6001600360008473ffffffffffffffffffffffffffffffffffffffff1673ffffffffffffffffffffffffffffffffffffffff16815260200190815260200160002060008282540192505081905550816002600083815260200190815260200160002060006101000a81548173ffffffffffffffffffffffffffffffffffffffff021916908373ffffffffffffffffffffffffffffffffffffffff160217905550808273ffffffffffffffffffffffffffffffffffffffff16600073ffffffffffffffffffffffffffffffffffffffff167fddf252ad1be2c89b69c2b068fc378daa952ba7f163c4a11628f55a4df523b3ef60405160405180910390a46122e36000838360016128e2565b5050565b6122f08261289b565b61232f576040517f08c379a000000000000000000000000000000000000000000000000000000000815260040161232690613f72565b60405180910390fd5b8060066000848152602001908152602001600020908161234f919061413e565b507ff8e1a15aba9398e019f0b49df1a4fde98ee17ae345cb5f6b5e2c27f5033e8ce78260405161237f9190613143565b60405180910390a15050565b600081116123ce576040517f08c379a00000000000000000000000000000000000000000000000000000000081526004016123c59061425c565b60405180910390fd5b6009543414612412576040517f08c379a000000000000000000000000000000000000000000000000000000000815260040161240990613ce4565b60405180910390fd5b6040518060a001604052808381526020013373ffffffffffffffffffffffffffffffffffffffff1681526020013073ffffffffffffffffffffffffffffffffffffffff16815260200182815260200160001515815250600b60008481526020019081526020016000206000820151816000015560208201518160010160006101000a81548173ffffffffffffffffffffffffffffffffffffffff021916908373ffffffffffffffffffffffffffffffffffffffff16021790555060408201518160020160006101000a81548173ffffffffffffffffffffffffffffffffffffffff021916908373ffffffffffffffffffffffffffffffffffffffff1602179055506060820151816003015560808201518160040160006101000a81548160ff02191690831515021790555090505061254b333084611d7e565b817fb640004f1d14576d0c209e240cad0410e0d8c0c33a09375861fbadae2588a98d3330846000604051612582949392919061427c565b60405180910390a25050565b8173ffffffffffffffffffffffffffffffffffffffff168373ffffffffffffffffffffffffffffffffffffffff16036125fc576040517f08c379a00000000000000000000000000000000000000000000000000000000081526004016125f39061430d565b60405180910390fd5b80600560008573ffffffffffffffffffffffffffffffffffffffff1673ffffffffffffffffffffffffffffffffffffffff16815260200190815260200160002060008473ffffffffffffffffffffffffffffffffffffffff1673ffffffffffffffffffffffffffffffffffffffff16815260200190815260200160002060006101000a81548160ff0219169083151502179055508173ffffffffffffffffffffffffffffffffffffffff168373ffffffffffffffffffffffffffffffffffffffff167f17307eab39ab6107e8899845ad3d59bd9653f200f220920489ca2b5937696c31836040516126ed9190612dc4565b60405180910390a3505050565b612705848484611d7e565b612711848484846128e8565b612750576040517f08c379a00000000000000000000000000000000000000000000000000000000081526004016127479061439f565b60405180910390fd5b50505050565b606060405180602001604052806000815250905090565b606061277882611bcf565b6000612782612756565b905060008151116127a257604051806020016040528060008152506127cd565b806127ac84612a6f565b6040516020016127bd929190613bbc565b6040516020818303038152906040525b915050919050565b60008160000154905060008111612821576040517f08c379a00000000000000000000000000000000000000000000000000000000081526004016128189061440b565b60405180910390fd5b6001810382600001819055505050565b60007f01ffc9a7000000000000000000000000000000000000000000000000000000007bffffffffffffffffffffffffffffffffffffffffffffffffffffffff1916827bffffffffffffffffffffffffffffffffffffffffffffffffffffffff1916149050919050565b60008073ffffffffffffffffffffffffffffffffffffffff166128bd83612077565b73ffffffffffffffffffffffffffffffffffffffff1614159050919050565b50505050565b50505050565b60006129098473ffffffffffffffffffffffffffffffffffffffff16612b3d565b15612a62578373ffffffffffffffffffffffffffffffffffffffff1663150b7a02612932611c1a565b8786866040518563ffffffff1660e01b81526004016129549493929190614480565b6020604051808303816000875af192505050801561299057506040513d601f19601f8201168201806040525081019061298d91906144e1565b60015b612a12573d80600081146129c0576040519150601f19603f3d011682016040523d82523d6000602084013e6129c5565b606091505b506000815103612a0a576040517f08c379a0000000000000000000000000000000000000000000000000000000008152600401612a019061439f565b60405180910390fd5b805181602001fd5b63150b7a0260e01b7bffffffffffffffffffffffffffffffffffffffffffffffffffffffff1916817bffffffffffffffffffffffffffffffffffffffffffffffffffffffff191614915050612a67565b600190505b949350505050565b606060006001612a7e84612b60565b01905060008167ffffffffffffffff811115612a9d57612a9c6131e8565b5b6040519080825280601f01601f191660200182016040528015612acf5781602001600182028036833780820191505090505b509050600082602001820190505b600115612b32578080600190039150507f3031323334353637383961626364656600000000000000000000000000000000600a86061a8153600a8581612b2657612b2561450e565b5b04945060008503612add575b819350505050919050565b6000808273ffffffffffffffffffffffffffffffffffffffff163b119050919050565b600080600090507a184f03e93ff9f4daa797ed6e38ed64bf6a1f0100000000000000008310612bbe577a184f03e93ff9f4daa797ed6e38ed64bf6a1f0100000000000000008381612bb457612bb361450e565b5b0492506040810190505b6d04ee2d6d415b85acef81000000008310612bfb576d04ee2d6d415b85acef81000000008381612bf157612bf061450e565b5b0492506020810190505b662386f26fc100008310612c2a57662386f26fc100008381612c2057612c1f61450e565b5b0492506010810190505b6305f5e1008310612c53576305f5e1008381612c4957612c4861450e565b5b0492506008810190505b6127108310612c78576127108381612c6e57612c6d61450e565b5b0492506004810190505b60648310612c9b5760648381612c9157612c9061450e565b5b0492506002810190505b600a8310612caa576001810190505b80915050919050565b6040518060a0016040528060008152602001600073ffffffffffffffffffffffffffffffffffffffff168152602001600073ffffffffffffffffffffffffffffffffffffffff168152602001600081526020016000151581525090565b6000604051905090565b600080fd5b600080fd5b60007fffffffff0000000000000000000000000000000000000000000000000000000082169050919050565b612d5981612d24565b8114612d6457600080fd5b50565b600081359050612d7681612d50565b92915050565b600060208284031215612d9257612d91612d1a565b5b6000612da084828501612d67565b91505092915050565b60008115159050919050565b612dbe81612da9565b82525050565b6000602082019050612dd96000830184612db5565b92915050565b600081519050919050565b600082825260208201905092915050565b60005b83811015612e19578082015181840152602081019050612dfe565b60008484015250505050565b6000601f19601f8301169050919050565b6000612e4182612ddf565b612e4b8185612dea565b9350612e5b818560208601612dfb565b612e6481612e25565b840191505092915050565b60006020820190508181036000830152612e898184612e36565b905092915050565b6000819050919050565b612ea481612e91565b8114612eaf57600080fd5b50565b600081359050612ec181612e9b565b92915050565b600060208284031215612edd57612edc612d1a565b5b6000612eeb84828501612eb2565b91505092915050565b600073ffffffffffffffffffffffffffffffffffffffff82169050919050565b6000612f1f82612ef4565b9050919050565b612f2f81612f14565b82525050565b6000602082019050612f4a6000830184612f26565b92915050565b612f5981612f14565b8114612f6457600080fd5b50565b600081359050612f7681612f50565b92915050565b60008060408385031215612f9357612f92612d1a565b5b6000612fa185828601612f67565b9250506020612fb285828601612eb2565b9150509250929050565b600081519050919050565b600082825260208201905092915050565b6000819050602082019050919050565b612ff181612e91565b82525050565b600061300282612ef4565b9050919050565b61301281612ff7565b82525050565b61302181612da9565b82525050565b60a08201600082015161303d6000850182612fe8565b5060208201516130506020850182613009565b5060408201516130636040850182613009565b5060608201516130766060850182612fe8565b5060808201516130896080850182613018565b50505050565b600061309b8383613027565b60a08301905092915050565b6000602082019050919050565b60006130bf82612fbc565b6130c98185612fc7565b93506130d483612fd8565b8060005b838110156131055781516130ec888261308f565b97506130f7836130a7565b9250506001810190506130d8565b5085935050505092915050565b6000602082019050818103600083015261312c81846130b4565b905092915050565b61313d81612e91565b82525050565b60006020820190506131586000830184613134565b92915050565b60008060006060848603121561317757613176612d1a565b5b600061318586828701612f67565b935050602061319686828701612f67565b92505060406131a786828701612eb2565b9150509250925092565b6000602082840312156131c7576131c6612d1a565b5b60006131d584828501612f67565b91505092915050565b600080fd5b600080fd5b7f4e487b7100000000000000000000000000000000000000000000000000000000600052604160045260246000fd5b61322082612e25565b810181811067ffffffffffffffff8211171561323f5761323e6131e8565b5b80604052505050565b6000613252612d10565b905061325e8282613217565b919050565b600067ffffffffffffffff82111561327e5761327d6131e8565b5b61328782612e25565b9050602081019050919050565b82818337600083830152505050565b60006132b66132b184613263565b613248565b9050828152602081018484840111156132d2576132d16131e3565b5b6132dd848285613294565b509392505050565b600082601f8301126132fa576132f96131de565b5b813561330a8482602086016132a3565b91505092915050565b6000806040838503121561332a57613329612d1a565b5b600083013567ffffffffffffffff81111561334857613347612d1f565b5b613354858286016132e5565b925050602061336585828601612eb2565b9150509250929050565b61337881612da9565b811461338357600080fd5b50565b6000813590506133958161336f565b92915050565b600080604083850312156133b2576133b1612d1a565b5b60006133c085828601612f67565b92505060206133d185828601613386565b9150509250929050565b60006040820190506133f06000830185612f26565b6133fd6020830184612f26565b9392505050565b600067ffffffffffffffff82111561341f5761341e6131e8565b5b61342882612e25565b9050602081019050919050565b600061344861344384613404565b613248565b905082815260208101848484011115613464576134636131e3565b5b61346f848285613294565b509392505050565b600082601f83011261348c5761348b6131de565b5b813561349c848260208601613435565b91505092915050565b600080600080608085870312156134bf576134be612d1a565b5b60006134cd87828801612f67565b94505060206134de87828801612f67565b93505060406134ef87828801612eb2565b925050606085013567ffffffffffffffff8111156135105761350f612d1f565b5b61351c87828801613477565b91505092959194509250565b6000806040838503121561353f5761353e612d1a565b5b600061354d85828601612eb2565b925050602061355e85828601612eb2565b9150509250929050565b6000806040838503121561357f5761357e612d1a565b5b600061358d85828601612f67565b925050602061359e85828601612f67565b9150509250929050565b7f4e487b7100000000000000000000000000000000000000000000000000000000600052602260045260246000fd5b600060028204905060018216806135ef57607f821691505b602082108103613602576136016135a8565b5b50919050565b7f4552433732313a20617070726f76616c20746f2063757272656e74206f776e6560008201527f7200000000000000000000000000000000000000000000000000000000000000602082015250565b6000613664602183612dea565b915061366f82613608565b604082019050919050565b6000602082019050818103600083015261369381613657565b9050919050565b7f4552433732313a20617070726f76652063616c6c6572206973206e6f7420746f60008201527f6b656e206f776e6572206f7220617070726f76656420666f7220616c6c000000602082015250565b60006136f6603d83612dea565b91506137018261369a565b604082019050919050565b60006020820190508181036000830152613725816136e9565b9050919050565b7f4e487b7100000000000000000000000000000000000000000000000000000000600052601160045260246000fd5b600061376682612e91565b915061377183612e91565b92508282039050818111156137895761378861372c565b5b92915050565b600061379a82612e91565b91506137a583612e91565b92508282019050808211156137bd576137bc61372c565b5b92915050565b7f4e487b7100000000000000000000000000000000000000000000000000000000600052603260045260246000fd5b60006137fd82612e91565b91507fffffffffffffffffffffffffffffffffffffffffffffffffffffffffffffffff820361382f5761382e61372c565b5b600182019050919050565b7f4552433732313a2063616c6c6572206973206e6f7420746f6b656e206f776e6560008201527f72206f7220617070726f76656400000000000000000000000000000000000000602082015250565b6000613896602d83612dea565b91506138a18261383a565b604082019050919050565b600060208201905081810360008301526138c581613889565b9050919050565b7f4552433732313a20696e76616c696420746f6b656e2049440000000000000000600082015250565b6000613902601883612dea565b915061390d826138cc565b602082019050919050565b60006020820190508181036000830152613931816138f5565b9050919050565b7f4552433732313a2061646472657373207a65726f206973206e6f74206120766160008201527f6c6964206f776e65720000000000000000000000000000000000000000000000602082015250565b6000613994602983612dea565b915061399f82613938565b604082019050919050565b600060208201905081810360008301526139c381613987565b9050919050565b7f6f6e6c79206f776e6572206f6620746865206d61726b6574706c61636520636160008201527f6e206368616e676520746865206c697374696e67207072696365000000000000602082015250565b6000613a26603a83612dea565b9150613a31826139ca565b604082019050919050565b60006020820190508181036000830152613a5581613a19565b9050919050565b7f4f6e6c79206d61726b6574706c616365206f776e65722063616e20757064617460008201527f65206c697374696e672070726963652e00000000000000000000000000000000602082015250565b6000613ab8603083612dea565b9150613ac382613a5c565b604082019050919050565b60006020820190508181036000830152613ae781613aab565b9050919050565b7f506c65617365207375626d6974207468652061736b696e67207072696365206960008201527f6e206f7264657220746f20636f6d706c65746520746865207075726368617365602082015250565b6000613b4a604083612dea565b9150613b5582613aee565b604082019050919050565b60006020820190508181036000830152613b7981613b3d565b9050919050565b600081905092915050565b6000613b9682612ddf565b613ba08185613b80565b9350613bb0818560208601612dfb565b80840191505092915050565b6000613bc88285613b8b565b9150613bd48284613b8b565b91508190509392505050565b7f4f6e6c79206974656d206f776e65722063616e20706572666f726d207468697360008201527f206f7065726174696f6e00000000000000000000000000000000000000000000602082015250565b6000613c3c602a83612dea565b9150613c4782613be0565b604082019050919050565b60006020820190508181036000830152613c6b81613c2f565b9050919050565b7f5072696365206d75737420626520657175616c20746f206c697374696e67207060008201527f7269636500000000000000000000000000000000000000000000000000000000602082015250565b6000613cce602483612dea565b9150613cd982613c72565b604082019050919050565b60006020820190508181036000830152613cfd81613cc1565b9050919050565b7f4552433732313a207472616e736665722066726f6d20696e636f72726563742060008201527f6f776e6572000000000000000000000000000000000000000000000000000000602082015250565b6000613d60602583612dea565b9150613d6b82613d04565b604082019050919050565b60006020820190508181036000830152613d8f81613d53565b9050919050565b7f4552433732313a207472616e7366657220746f20746865207a65726f2061646460008201527f7265737300000000000000000000000000000000000000000000000000000000602082015250565b6000613df2602483612dea565b9150613dfd82613d96565b604082019050919050565b60006020820190508181036000830152613e2181613de5565b9050919050565b7f4552433732313a206d696e7420746f20746865207a65726f2061646472657373600082015250565b6000613e5e602083612dea565b9150613e6982613e28565b602082019050919050565b60006020820190508181036000830152613e8d81613e51565b9050919050565b7f4552433732313a20746f6b656e20616c7265616479206d696e74656400000000600082015250565b6000613eca601c83612dea565b9150613ed582613e94565b602082019050919050565b60006020820190508181036000830152613ef981613ebd565b9050919050565b7f45524337323155524953746f726167653a2055524920736574206f66206e6f6e60008201527f6578697374656e7420746f6b656e000000000000000000000000000000000000602082015250565b6000613f5c602e83612dea565b9150613f6782613f00565b604082019050919050565b60006020820190508181036000830152613f8b81613f4f565b9050919050565b60008190508160005260206000209050919050565b60006020601f8301049050919050565b600082821b905092915050565b600060088302613ff47fffffffffffffffffffffffffffffffffffffffffffffffffffffffffffffffff82613fb7565b613ffe8683613fb7565b95508019841693508086168417925050509392505050565b6000819050919050565b600061403b61403661403184612e91565b614016565b612e91565b9050919050565b6000819050919050565b61405583614020565b61406961406182614042565b848454613fc4565b825550505050565b600090565b61407e614071565b61408981848461404c565b505050565b5b818110156140ad576140a2600082614076565b60018101905061408f565b5050565b601f8211156140f2576140c381613f92565b6140cc84613fa7565b810160208510156140db578190505b6140ef6140e785613fa7565b83018261408e565b50505b505050565b600082821c905092915050565b6000614115600019846008026140f7565b1980831691505092915050565b600061412e8383614104565b9150826002028217905092915050565b61414782612ddf565b67ffffffffffffffff8111156141605761415f6131e8565b5b61416a82546135d7565b6141758282856140b1565b600060209050601f8311600181146141a85760008415614196578287015190505b6141a08582614122565b865550614208565b601f1984166141b686613f92565b60005b828110156141de578489015182556001820191506020850194506020810190506141b9565b868310156141fb57848901516141f7601f891682614104565b8355505b6001600288020188555050505b505050505050565b7f5072696365206d757374206265206174206c6561737420312077656900000000600082015250565b6000614246601c83612dea565b915061425182614210565b602082019050919050565b6000602082019050818103600083015261427581614239565b9050919050565b60006080820190506142916000830187612f26565b61429e6020830186612f26565b6142ab6040830185613134565b6142b86060830184612db5565b95945050505050565b7f4552433732313a20617070726f766520746f2063616c6c657200000000000000600082015250565b60006142f7601983612dea565b9150614302826142c1565b602082019050919050565b60006020820190508181036000830152614326816142ea565b9050919050565b7f4552433732313a207472616e7366657220746f206e6f6e20455243373231526560008201527f63656976657220696d706c656d656e7465720000000000000000000000000000602082015250565b6000614389603283612dea565b91506143948261432d565b604082019050919050565b600060208201905081810360008301526143b88161437c565b9050919050565b7f436f756e7465723a2064656372656d656e74206f766572666c6f770000000000600082015250565b60006143f5601b83612dea565b9150614400826143bf565b602082019050919050565b60006020820190508181036000830152614424816143e8565b9050919050565b600081519050919050565b600082825260208201905092915050565b60006144528261442b565b61445c8185614436565b935061446c818560208601612dfb565b61447581612e25565b840191505092915050565b60006080820190506144956000830187612f26565b6144a26020830186612f26565b6144af6040830185613134565b81810360608301526144c18184614447565b905095945050505050565b6000815190506144db81612d50565b92915050565b6000602082840312156144f7576144f6612d1a565b5b6000614505848285016144cc565b91505092915050565b7f4e487b7100000000000000000000000000000000000000000000000000000000600052601260045260246000fdfea264697066735822122060173404715c358a9253df43ea2350df6d3b1f2195fc51bf1b315c296891407a64736f6c63430008110033",
  "linkReferences": {},
  "deployedLinkReferences": {}
}